S015000046696E616C5F50726F6A6563742E73726563EF
S11300000C942A000C9447000C9447000C9447006D
S11300100C9447000C9447000C9447000C94470040
S11300200C9447000C9447000C9447000C94470030
S11300300C9447000C9447000C9447000C94470020
S11300400C9447000C9447000C9447000C94470010
S11300500C94470011241FBECFE5D8E0DEBFCDBF0E
S113006016E0A0E6B0E0E0E1F9E002C005900D92F0
S1130070A03CB107D9F727E0A0ECB6E001C01D927F
S1130080A033B207E1F70E94AC000C9486040C94F0
S1130090000089E08EBD82E990E09BBD8ABD089591
S11300A080E487B983E886B90895369A3699FECFF5
S11300B084B125B190E0922B0895CF92DF92EF9214
S11300C0FF920F931F93CF93DF9302EF16E0C0E6E6
S11300D0D0E00F2EF2E1EF2EF7E0FF2EF02D0F2EE1
S11300E0F0E7CF2EF0E0DF2EF02DF8016191719151
S11300F0819191918F0120E030E04CE052E40E9424
S11301003A020E94AC0270932F0760932E07683066
S1130110710524F0F601868588BB07C0660F771F3A
S1130120FB01E059FF4F808188BB8881229682BB06
S113013089EF90E00197F1F700C000000E151F054C
S1130140A1F68FEF82BBDF91CF911F910F91FF90AA
S1130150EF90DF90CF900895CF93DF93CDB7DEB7C4
S11301602D970FB6F894DEBF0FBECDBF8FEF87BBC0
S113017081BB0E9450000E9449000AEE16E01DBC9B
S11301801CBC88B7806188BF82EC96E09A8389831F
S113019008B604FEFDCF0E9455009250E981FA8111
S11301A081939193FA83E98388B7806188BF0E179E
S11301B01F0771F70E945D008EEE96E0998788878D
S11301C0E0EAF3E0FF83EE8380E890E09B878A8790
S11301D02A843B84EE81FF810F2EF2ECCF2EF6E0D1
S11301E0DF2EF02DE12CF12C19821D82B12CA12CD3
S11301F0912C812CFD87EC87F601419051906F0181
S1130200052C000C66087708EC85FD8561917191D9
S113021081919191FD87EC87A30192010E945C0476
S11302200E94E4029B01AC016B2D7A2D892D982D3F
S11302300E94C901B62EA72E982E892EF101619134
S11302407191819191911F01A30192010E945C041B
S11302500E94E4029B01AC016E2D7F2D89819D815A
S11302600E94C801E62EF72E89839D830C151D0577
S113027019F620E030E040EA51E46B2D7A2D892D07
S1130280982D0E943A0220E030E44CE156E40E94AA
S11302903A022B013C0120E030E040EA51E46E2DAB
S11302A07F2D89819D810E943A0220E030E44CE157
S11302B056E40E943A026B017C0120E030E040E801
S11302C05FEBC301B2010E943502882324F477FA5C
S11302D0709477F8709420E030E040E85FEBC70159
S11302E0B6010E943502882324F4F7FAF094F7F853
S11302F0F094A3019201C301B2010E9494034B0143
S11303005C01A7019601C701B6010E9494036983A9
S11303107A838B839C8329813A814B815C81C501DB
S1130320B4010E94C9010E940704E885F98561931C
S1130330719381939193F987E8878E819F81805B84
S11303409F4F9F838E83EA85FB85E05BFF4FFB878E
S1130350EA87888599858651974009F039CF88ECDA
S113036090E09093C1068093C0064092EA065092B2
S1130370EB066092EC067092ED06C0922A07D092CA
S11303802B07E0922C07F0922D070E945D00F7CE18
S11303905058BB27AA270E94E0010C945A030E94DC
S11303A04C0338F00E94530320F039F49F3F19F4B2
S11303B026F40C9449030EF4E095E7FB0C944303F4
S11303C0E92F0E946B0358F3BA1762077307840777
S11303D0950720F079F4A6F50C948D030EF4E095BE
S11303E00B2EBA2FA02D0B01B90190010C01CA01EB
S11303F0A0011124FF27591B99F0593F50F4503E96
S113040068F11A16F040A22F232F342F4427585F87
S1130410F3CF469537952795A795F0405395C9F79F
S11304207EF41F16BA0B620B730B840BBAF0915057
S1130430A1F0FF0FBB1F661F771F881FC2F70EC0F6
S1130440BA0F621F731F841F48F4879577956795C9
S1130450B795F7959E3F08F0B0CF9395880F08F0B5
S11304609927EE0F9795879508950E941F0308F426
S113047081E008950E944E020C945A030E94530393
S113048058F00E944C0340F029F45F3F29F00C948B
S1130490430351110C948E030C9449030E946B0383
S11304A068F39923B1F3552391F3951B550BBB279F
S11304B0AA2762177307840738F09F5F5F4F220FE4
S11304C0331F441FAA1FA9F335D00E2E3AF0E0E8DB
S11304D032D091505040E695001CCAF72BD0FE2F25
S11304E029D0660F771F881FBB1F261737074807B9
S11304F0AB07B0E809F0BB0B802DBF01FF27935871
S11305005F4F3AF09E3F510578F00C9443030C94EE
S11305108E035F3FE4F3983ED4F386957795679511
S1130520B795F7959F5FC9F7880F911D96958795A5
S113053097F90895E1E0660F771F881FBB1F6217C4
S113054073078407BA0720F0621B730B840BBA0B82
S1130550EE1F88F7E09508950E94B3026894B111E4
S11305600C948E0308950E94730388F09F5798F0AB
S1130570B92F9927B751B0F0E1F0660F771F881FA4
S1130580991F1AF0BA95C9F714C0B13091F00E94BE
S11305908D03B1E008950C948D03672F782F88277D
S11305A0B85F39F0B93FCCF3869577956795B395E5
S11305B0D9F73EF490958095709561957F4F8F4F54
S11305C09F4F0895E89409C097FB3EF49095809559
S11305D0709561957F4F8F4F9F4F9923A9F0F92F05
S11305E096E9BB279395F695879577956795B79583
S11305F0F111F8CFFAF4BB0F11F460FF1BC06F5F69
S11306007F4F8F4F9F4F16C0882311F096E911C07A
S1130610772321F09EE8872F762F05C0662371F09B
S113062096E8862F70E060E02AF09A95660F771FAF
S1130630881FDAF7880F9695879597F90895990F8B
S11306400008550FAA0BE0E8FEEF16161706E80798
S1130650F907C0F012161306E407F50798F0621BB9
S1130660730B840B950B39F40A2661F0232B242B8E
S1130670252B21F408950A2609F4A140A6958FEFAD
S1130680811D811D089597F99F6780E870E060E0FF
S113069008959FEF80EC089500240A941616170617
S11306A018060906089500240A941216130614065F
S11306B005060895092E0394000C11F4882352F0C2
S11306C0BB0F40F4BF2B11F460FF04C06F5F7F4F7A
S11306D08F4F9F4F089557FD9058440F551F59F061
S11306E05F3F71F04795880F97FB991F61F09F3F1B
S11306F079F087950895121613061406551FF2CF44
S11307004695F1DF08C0161617061806991FF1CF93
S113071086957105610508940895E894BB276627BA
S11307207727CB0197F908950E94A7030C945A03E5
S11307300E944C0338F00E94530320F0952311F0DB
S11307400C9443030C94490311240C948E030E94CB
S11307506B0370F3959FC1F3950F50E0551F629F93
S1130760F001729FBB27F00DB11D639FAA27F00D06
S1130770B11DAA1F649F6627B00DA11D661F829F2D
S11307802227B00DA11D621F739FB00DA11D621F12
S1130790839FA00D611D221F749F3327A00D611D2F
S11307A0231F849F600D211D822F762F6A2F112411
S11307B09F5750409AF0F1F088234AF0EE0FFF1F44
S11307C0BB1F661F771F881F91505040A9F79E3F9B
S11307D0510580F00C9443030C948E035F3FE4F3C3
S11307E0983ED4F3869577956795B795F795E795F1
S11307F09F5FC1F7FE2B880F911D9695879597F9FA
S1130800089519F416F40C9449030C9447040E94B7
S11308107303B8F39923C9F3B6F39F57550B87FFB6
S11308200E9455040024A0E640EA900180585695A1
S1130830979528F4805C660F771F881F20F0261791
S11308403707480730F4621B730B840B20293129C6
S11308504A2BA69517940794202531254A2758F743
S1130860660F771F881F20F026173707480730F4D4
S1130870620B730B840B200D311D411DA09581F774
S1130880B901842F9158880F9695879508959F3FB5
S113089031F0915020F4879577956795B795880F37
S11308A0911D9695879597F9089591505040660F3C
S11308B0771F881FD2F70895DB018F939F930E94BF
S11308C06C04BF91AF91A29F800D911DA39F900DC9
S11308D0B29F900D112408950E947704A59F900D56
S11308E0B49F900DA49F800D911D11240895A29F83
S11308F0B001B39FC001A39F700D811D1124911DF0
S1130900B29F700D811D1124911D0895F894FFCF9D
S11309107F00BF00DF00EF00F700FB00FD00FE00DA
S11309200100030007000F001F003F007F00FF00CD
S113093000000000000000000000000000000000B3
S113094000000000000000000000000000000000A3
S11309500000000000000000000000000000000093
S11309600000000000000000000000000000000083
S11309700000000000000000000000000000000073
S113098000000000120C0000F51600009A1F000081
S11309902625000010270000262500009A1F0000CD
S11309A0F5160000120C000000000000EEF3FFFF3B
S11309B00BE9FFFF66E0FFFFDADAFFFFF0D8FFFF85
S11309C0DADAFFFF66E0FFFF0BE9FFFFEEF3FFFF5C
S11309D000000000F5160000262500002625000072
S11309E0F5160000000000000BE9FFFFDADAFFFF54
S11309F0DADAFFFF0BE9FFFF00000000F516000044
S1130A002625000026250000F51600000000000041
S1130A100BE9FFFFDADAFFFFDADAFFFF0BE9FFFF8A
S1130A20000000009A1F000026250000120C0000A0
S1130A300BE9FFFFF0D8FFFF0BE9FFFF120C0000EA
S1130A40262500009A1F00000000000066E0FFFF5A
S1130A50DADAFFFFEEF3FFFFF516000010270000BF
S1130A60F5160000EEF3FFFFDADAFFFF66E0FFFFA2
S1130A700000000026250000F51600000BE9FFFF2A
S1130A80DADAFFFF0000000026250000F51600005A
S1130A900BE9FFFFDADAFFFF000000002625000063
S1130AA0F51600000BE9FFFFDADAFFFF0000000093
S1130AB026250000F51600000BE9FFFFDADAFFFF38
S1130AC0000000001027000000000000F0D8FFFF25
S1130AD0000000001027000000000000F0D8FFFF15
S1130AE0000000001027000000000000F0D8FFFF05
S1130AF0000000001027000000000000F0D8FFFFF5
S1130B00000000001027000000000000F0D8FFFFE4
S1130B1000000000262500000BE9FFFF0BE9FFFFA2
S1130B202625000000000000DADAFFFFF5160000B9
S1130B30F5160000DADAFFFF0000000026250000A9
S1130B400BE9FFFF0BE9FFFF262500000000000072
S1130B50DADAFFFFF5160000F5160000DADAFFFF17
S1130B60000000009A1F0000DADAFFFF120C0000F8
S1130B70F5160000F0D8FFFFF5160000120C000077
S1130B80DADAFFFF9A1F00000000000066E0FFFFB2
S1130B9026250000EEF3FFFF0BE9FFFF10270000FE
S1130BA00BE9FFFFEEF3FFFF2625000066E0FFFFE1
S1130BB000000000F5160000DADAFFFF2625000029
S1130BC00BE9FFFF00000000F5160000DADAFFFF72
S1130BD0262500000BE9FFFF00000000F5160000C9
S1130BE0DADAFFFF262500000BE9FFFF0000000012
S1130BF0F5160000DADAFFFF262500000BE9FFFFF7
S1130C0000000000120C00000BE9FFFF9A1F000017
S1130C10DADAFFFF10270000DADAFFFF9A1F00007C
S1130C200BE9FFFF120C000000000000EEF3FFFFD1
S1130C30F516000066E0FFFF26250000F0D8FFFF50
S1130C402625000066E0FFFFF5160000EEF3FFFF27
S1130C5010270000102700001027000010270000B4
S1130C6010270000102700001027000010270000A4
S1130C701027000010270000102700001027000094
S1130C801027000010270000102700001027000084
S1130C901027000010270000102700001027000074
S1130CA010270000262500009A1F0000F5160000FA
S1130CB0120C000000000000EEF3FFFF0BE9FFFF41
S1130CC066E0FFFFDADAFFFFF0D8FFFFDADAFFFFB2
S1130CD066E0FFFF0BE9FFFFEEF3FFFF00000000FB
S1130CE0120C0000F51600009A1F000026250000D3
S1130CF0102700009A1F0000120C0000EEF3FFFF03
S1130D0066E0FFFFF0D8FFFF66E0FFFFEEF3FFFFB2
S1130D10120C00009A1F0000102700009A1F000008
S1130D20120C0000EEF3FFFF66E0FFFFF0D8FFFFB8
S1130D3066E0FFFFEEF3FFFF120C00009A1F0000B5
S1130D4010270000F5160000EEF3FFFFDADAFFFFCC
S1130D5066E0FFFF000000009A1F00002625000047
S1130D60120C00000BE9FFFFF0D8FFFF0BE9FFFFB7
S1130D70120C0000262500009A1F0000000000004D
S1130D8066E0FFFFDADAFFFFEEF3FFFFF51600007F
S1130D9010270000120C000066E0FFFF66E0FFFF72
S1130DA0120C000010270000120C000066E0FFFF88
S1130DB066E0FFFF120C000010270000120C000078
S1130DC066E0FFFF66E0FFFF120C00001027000042
S1130DD0120C000066E0FFFF66E0FFFF120C00004B
S1130DE01027000000000000F0D8FFFF0000000002
S1130DF01027000000000000F0D8FFFF00000000F2
S1130E001027000000000000F0D8FFFF00000000E1
S1130E101027000000000000F0D8FFFF00000000D1
S1130E201027000000000000F0D8FFFF00000000C1
S1130E3010270000EEF3FFFF66E0FFFF9A1F00009B
S1130E40120C0000F0D8FFFF120C00009A1F0000E3
S1130E5066E0FFFFEEF3FFFF10270000EEF3FFFF55
S1130E6066E0FFFF9A1F0000120C0000F0D8FFFF9D
S1130E70120C00009A1F000066E0FFFFEEF3FFFF74
S1130E80102700000BE9FFFFEEF3FFFF262500000B
S1130E9066E0FFFF000000009A1F0000DADAFFFF9F
S1130EA0120C0000F5160000F0D8FFFFF516000044
S1130EB0120C0000DADAFFFF9A1F000000000000A5
S1130EC066E0FFFF26250000EEF3FFFF0BE9FFFFBE
S1130ED01027000066E0FFFF120C0000120C000057
S1130EE066E0FFFF1027000066E0FFFF120C000021
S1130EF0120C000066E0FFFF1027000066E0FFFF11
S1130F00120C0000120C000066E0FFFF1027000026
S1130F1066E0FFFF120C0000120C000066E0FFFF09
S1130F2010270000DADAFFFF9A1F00000BE9FFFF29
S1130F30120C000000000000EEF3FFFFF5160000A5
S1130F4066E0FFFF26250000F0D8FFFF26250000FD
S1130F5066E0FFFFF5160000EEF3FFFF000000005F
S1130F60120C00000BE9FFFF9A1F0000DADAFFFF02
S9030000FC
